{
  "_format": "hh-sol-artifact-1",
  "contractName": "FoodDeliveryContract",
  "sourceName": "contracts/smart.sol",
  "abi": [
    {
      "inputs": [
        {
          "internalType": "address",
          "name": "_restaurant",
          "type": "address"
        },
        {
          "internalType": "uint256",
          "name": "_foodFee",
          "type": "uint256"
        },
        {
          "internalType": "uint256",
          "name": "_deliveryFee",
          "type": "uint256"
        },
        {
          "internalType": "uint256",
          "name": "_expirationTime",
          "type": "uint256"
        }
      ],
      "stateMutability": "payable",
      "type": "constructor"
    },
    {
      "inputs": [],
      "name": "deliveryFee",
      "outputs": [
        {
          "internalType": "uint256",
          "name": "",
          "type": "uint256"
        }
      ],
      "stateMutability": "view",
      "type": "function"
    },
    {
      "inputs": [],
      "name": "driver",
      "outputs": [
        {
          "internalType": "address",
          "name": "",
          "type": "address"
        }
      ],
      "stateMutability": "view",
      "type": "function"
    },
    {
      "inputs": [],
      "name": "expirationTime",
      "outputs": [
        {
          "internalType": "uint256",
          "name": "",
          "type": "uint256"
        }
      ],
      "stateMutability": "view",
      "type": "function"
    },
    {
      "inputs": [],
      "name": "foodFee",
      "outputs": [
        {
          "internalType": "uint256",
          "name": "",
          "type": "uint256"
        }
      ],
      "stateMutability": "view",
      "type": "function"
    },
    {
      "inputs": [],
      "name": "isCanceled",
      "outputs": [
        {
          "internalType": "bool",
          "name": "",
          "type": "bool"
        }
      ],
      "stateMutability": "view",
      "type": "function"
    },
    {
      "inputs": [],
      "name": "nullifyContract",
      "outputs": [],
      "stateMutability": "nonpayable",
      "type": "function"
    },
    {
      "inputs": [
        {
          "internalType": "address",
          "name": "",
          "type": "address"
        }
      ],
      "name": "payments",
      "outputs": [
        {
          "internalType": "uint256",
          "name": "",
          "type": "uint256"
        }
      ],
      "stateMutability": "view",
      "type": "function"
    },
    {
      "inputs": [],
      "name": "registerAsDriver",
      "outputs": [],
      "stateMutability": "nonpayable",
      "type": "function"
    },
    {
      "inputs": [
        {
          "internalType": "address",
          "name": "",
          "type": "address"
        }
      ],
      "name": "registeredDrivers",
      "outputs": [
        {
          "internalType": "bool",
          "name": "",
          "type": "bool"
        }
      ],
      "stateMutability": "view",
      "type": "function"
    },
    {
      "inputs": [],
      "name": "restaurant",
      "outputs": [
        {
          "internalType": "address",
          "name": "",
          "type": "address"
        }
      ],
      "stateMutability": "view",
      "type": "function"
    },
    {
      "inputs": [],
      "name": "scanQRCode",
      "outputs": [],
      "stateMutability": "nonpayable",
      "type": "function"
    },
    {
      "inputs": [
        {
          "internalType": "uint256",
          "name": "_deliveryFee",
          "type": "uint256"
        }
      ],
      "name": "setDeliveryFee",
      "outputs": [],
      "stateMutability": "nonpayable",
      "type": "function"
    },
    {
      "inputs": [],
      "name": "user",
      "outputs": [
        {
          "internalType": "address",
          "name": "",
          "type": "address"
        }
      ],
      "stateMutability": "view",
      "type": "function"
    },
    {
      "stateMutability": "payable",
      "type": "receive"
    }
  ],
  "bytecode": "0x6080604052604051620014b0380380620014b083398181016040528101906200002991906200017b565b336000806101000a81548173ffffffffffffffffffffffffffffffffffffffff021916908373ffffffffffffffffffffffffffffffffffffffff16021790555083600160006101000a81548173ffffffffffffffffffffffffffffffffffffffff021916908373ffffffffffffffffffffffffffffffffffffffff16021790555082600381905550816004819055508042620000c691906200021c565b6005819055505050505062000279565b600080fd5b600073ffffffffffffffffffffffffffffffffffffffff82169050919050565b60006200010882620000db565b9050919050565b6200011a81620000fb565b81146200012657600080fd5b50565b6000815190506200013a816200010f565b92915050565b6000819050919050565b620001558162000140565b81146200016157600080fd5b50565b60008151905062000175816200014a565b92915050565b60008060008060808587031215620001985762000197620000d6565b5b6000620001a88782880162000129565b9450506020620001bb8782880162000164565b9350506040620001ce8782880162000164565b9250506060620001e18782880162000164565b91505092959194509250565b7f4e487b7100000000000000000000000000000000000000000000000000000000600052601160045260246000fd5b6000620002298262000140565b9150620002368362000140565b9250827fffffffffffffffffffffffffffffffffffffffffffffffffffffffffffffffff038211156200026e576200026d620001ed565b5b828201905092915050565b61122780620002896000396000f3fe6080604052600436106100c65760003560e01c8063b8b915731161007f578063da284dcc11610059578063da284dcc1461030d578063e2982c2114610338578063ed16805814610375578063f3cc0f1f146103a0576101b1565b8063b8b91573146102a2578063bcf9d659146102cb578063cf3b1c9a146102f6576101b1565b806309e7fa35146101b65780630ed5a933146101f35780633eef3b861461021e57806343de3bc3146102355780634f8632ba1461024c5780636ecc5d6214610277576101b1565b366101b15760008054906101000a900473ffffffffffffffffffffffffffffffffffffffff1673ffffffffffffffffffffffffffffffffffffffff163373ffffffffffffffffffffffffffffffffffffffff1614610159576040517f08c379a000000000000000000000000000000000000000000000000000000000815260040161015090610ab3565b60405180910390fd5b34600860003373ffffffffffffffffffffffffffffffffffffffff1673ffffffffffffffffffffffffffffffffffffffff16815260200190815260200160002060008282546101a89190610b0c565b92505081905550005b600080fd5b3480156101c257600080fd5b506101dd60048036038101906101d89190610bc5565b6103cb565b6040516101ea9190610c0d565b60405180910390f35b3480156101ff57600080fd5b506102086103eb565b6040516102159190610c0d565b60405180910390f35b34801561022a57600080fd5b506102336103fe565b005b34801561024157600080fd5b5061024a610458565b005b34801561025857600080fd5b5061026161080f565b60405161026e9190610c37565b60405180910390f35b34801561028357600080fd5b5061028c610833565b6040516102999190610c37565b60405180910390f35b3480156102ae57600080fd5b506102c960048036038101906102c49190610c7e565b610859565b005b3480156102d757600080fd5b506102e06108f1565b6040516102ed9190610cba565b60405180910390f35b34801561030257600080fd5b5061030b6108f7565b005b34801561031957600080fd5b506103226109e6565b60405161032f9190610cba565b60405180910390f35b34801561034457600080fd5b5061035f600480360381019061035a9190610bc5565b6109ec565b60405161036c9190610cba565b60405180910390f35b34801561038157600080fd5b5061038a610a04565b6040516103979190610c37565b60405180910390f35b3480156103ac57600080fd5b506103b5610a2a565b6040516103c29190610cba565b60405180910390f35b60076020528060005260406000206000915054906101000a900460ff1681565b600660009054906101000a900460ff1681565b6001600760003373ffffffffffffffffffffffffffffffffffffffff1673ffffffffffffffffffffffffffffffffffffffff16815260200190815260200160002060006101000a81548160ff021916908315150217905550565b600260009054906101000a900473ffffffffffffffffffffffffffffffffffffffff1673ffffffffffffffffffffffffffffffffffffffff163373ffffffffffffffffffffffffffffffffffffffff16146104e8576040517f08c379a00000000000000000000000000000000000000000000000000000000081526004016104df90610d47565b60405180910390fd5b600660009054906101000a900460ff1615610538576040517f08c379a000000000000000000000000000000000000000000000000000000000815260040161052f90610db3565b60405180910390fd5b600060045460035461054a9190610b0c565b90508047101561058f576040517f08c379a000000000000000000000000000000000000000000000000000000000815260040161058690610e45565b60405180910390fd5b6000600160009054906101000a900473ffffffffffffffffffffffffffffffffffffffff1673ffffffffffffffffffffffffffffffffffffffff166003546040516105d990610e96565b60006040518083038185875af1925050503d8060008114610616576040519150601f19603f3d011682016040523d82523d6000602084013e61061b565b606091505b505090508061065f576040517f08c379a000000000000000000000000000000000000000000000000000000000815260040161065690610f1d565b60405180910390fd5b600260009054906101000a900473ffffffffffffffffffffffffffffffffffffffff1673ffffffffffffffffffffffffffffffffffffffff166004546040516106a790610e96565b60006040518083038185875af1925050503d80600081146106e4576040519150601f19603f3d011682016040523d82523d6000602084013e6106e9565b606091505b5050809150508061072f576040517f08c379a000000000000000000000000000000000000000000000000000000000815260040161072690610faf565b60405180910390fd5b6000479050600081111561080a5760008054906101000a900473ffffffffffffffffffffffffffffffffffffffff1673ffffffffffffffffffffffffffffffffffffffff168160405161078190610e96565b60006040518083038185875af1925050503d80600081146107be576040519150601f19603f3d011682016040523d82523d6000602084013e6107c3565b606091505b50508092505081610809576040517f08c379a000000000000000000000000000000000000000000000000000000000815260040161080090611041565b60405180910390fd5b5b505050565b60008054906101000a900473ffffffffffffffffffffffffffffffffffffffff1681565b600260009054906101000a900473ffffffffffffffffffffffffffffffffffffffff1681565b60008054906101000a900473ffffffffffffffffffffffffffffffffffffffff1673ffffffffffffffffffffffffffffffffffffffff163373ffffffffffffffffffffffffffffffffffffffff16146108e7576040517f08c379a00000000000000000000000000000000000000000000000000000000081526004016108de906110d3565b60405180910390fd5b8060048190555050565b60035481565b60008054906101000a900473ffffffffffffffffffffffffffffffffffffffff1673ffffffffffffffffffffffffffffffffffffffff163373ffffffffffffffffffffffffffffffffffffffff1614610985576040517f08c379a000000000000000000000000000000000000000000000000000000000815260040161097c90611165565b60405180910390fd5b60055442116109c9576040517f08c379a00000000000000000000000000000000000000000000000000000000081526004016109c0906111d1565b60405180910390fd5b6001600660006101000a81548160ff021916908315150217905550565b60055481565b60086020528060005260406000206000915090505481565b600160009054906101000a900473ffffffffffffffffffffffffffffffffffffffff1681565b60045481565b600082825260208201905092915050565b7f4f6e6c792074686520757365722063616e2073656e642066756e647320746f2060008201527f7468697320636f6e747261637400000000000000000000000000000000000000602082015250565b6000610a9d602d83610a30565b9150610aa882610a41565b604082019050919050565b60006020820190508181036000830152610acc81610a90565b9050919050565b6000819050919050565b7f4e487b7100000000000000000000000000000000000000000000000000000000600052601160045260246000fd5b6000610b1782610ad3565b9150610b2283610ad3565b9250827fffffffffffffffffffffffffffffffffffffffffffffffffffffffffffffffff03821115610b5757610b56610add565b5b828201905092915050565b600080fd5b600073ffffffffffffffffffffffffffffffffffffffff82169050919050565b6000610b9282610b67565b9050919050565b610ba281610b87565b8114610bad57600080fd5b50565b600081359050610bbf81610b99565b92915050565b600060208284031215610bdb57610bda610b62565b5b6000610be984828501610bb0565b91505092915050565b60008115159050919050565b610c0781610bf2565b82525050565b6000602082019050610c226000830184610bfe565b92915050565b610c3181610b87565b82525050565b6000602082019050610c4c6000830184610c28565b92915050565b610c5b81610ad3565b8114610c6657600080fd5b50565b600081359050610c7881610c52565b92915050565b600060208284031215610c9457610c93610b62565b5b6000610ca284828501610c69565b91505092915050565b610cb481610ad3565b82525050565b6000602082019050610ccf6000830184610cab565b92915050565b7f4f6e6c7920746865206472697665722063616e207363616e207468652051522060008201527f636f646500000000000000000000000000000000000000000000000000000000602082015250565b6000610d31602483610a30565b9150610d3c82610cd5565b604082019050919050565b60006020820190508181036000830152610d6081610d24565b9050919050565b7f436f6e747261637420686173206265656e206e756c6c69666965640000000000600082015250565b6000610d9d601b83610a30565b9150610da882610d67565b602082019050919050565b60006020820190508181036000830152610dcc81610d90565b9050919050565b7f4e6f7420656e6f7567682066756e647320746f20636f6d706c6574652074686560008201527f207061796d656e74000000000000000000000000000000000000000000000000602082015250565b6000610e2f602883610a30565b9150610e3a82610dd3565b604082019050919050565b60006020820190508181036000830152610e5e81610e22565b9050919050565b600081905092915050565b50565b6000610e80600083610e65565b9150610e8b82610e70565b600082019050919050565b6000610ea182610e73565b9150819050919050565b7f4661696c656420746f2073656e64207061796d656e7420746f2074686520726560008201527f7374617572616e74000000000000000000000000000000000000000000000000602082015250565b6000610f07602883610a30565b9150610f1282610eab565b604082019050919050565b60006020820190508181036000830152610f3681610efa565b9050919050565b7f4661696c656420746f2073656e64207061796d656e7420746f2074686520647260008201527f6976657200000000000000000000000000000000000000000000000000000000602082015250565b6000610f99602483610a30565b9150610fa482610f3d565b604082019050919050565b60006020820190508181036000830152610fc881610f8c565b9050919050565b7f4661696c656420746f2073656e642072656d61696e696e67207061796d656e7460008201527f206261636b20746f207468652075736572000000000000000000000000000000602082015250565b600061102b603183610a30565b915061103682610fcf565b604082019050919050565b6000602082019050818103600083015261105a8161101e565b9050919050565b7f4f6e6c792074686520757365722063616e20736574207468652064656c69766560008201527f7279206665650000000000000000000000000000000000000000000000000000602082015250565b60006110bd602683610a30565b91506110c882611061565b604082019050919050565b600060208201905081810360008301526110ec816110b0565b9050919050565b7f4f6e6c792074686520757365722063616e206e756c6c6966792074686520636f60008201527f6e74726163740000000000000000000000000000000000000000000000000000602082015250565b600061114f602683610a30565b915061115a826110f3565b604082019050919050565b6000602082019050818103600083015261117e81611142565b9050919050565b7f436f6e7472616374206861732065787069726564000000000000000000000000600082015250565b60006111bb601483610a30565b91506111c682611185565b602082019050919050565b600060208201905081810360008301526111ea816111ae565b905091905056fea2646970667358221220540dcbfb0ffe6abcb3dcb0cb5083a8e6ac6be28a907c081dbab3de239a40a30d64736f6c63430008090033",
  "linkReferences": {},
  "deployedLinkReferences": {}
}